:020000040000FA
:06000000D8EF08F0120029
:020006000000F8
:08000800FDDA04EC03F0825064
:10001000010B02E039EF01F0A1EF01F0D9CFE6FFCB
:10002000E1CFD9FF030EE126010EF36E020EF3CFEE
:10003000DBFF79EC03F0DE6ADD6ADECF10F0DDCFA6
:1000400011F0D890115004E6C80E105C000E115843
:1000500005E2DF2A010EF1E3DB2AEFD7020EDBCF48
:10006000F3FFDB2AF350E66E59EC04F0E552020E82
:10007000DB506408E0E2E66859EC04F0E552010E5A
:10008000F36E020EF3CFDBFFD6D7D9CFE6FFE1CF79
:10009000D9FF210EE126010EDB6A020EDB6A030E98
:1000A000DB6A040EDB6A050EDB6A060EDB6A070EEE
:1000B000DB6A080EDB6AD950090FE96EDACFEAFF76
:1000C000200EEE6EEE6EEE6EEE6EEE6EEE6EEE6E7E
:1000D000EE6AD950110FE96EDACFEAFF200EEE6E0C
:1000E000EE6EEE6EEE6EEE6EEE6EEE6EEE6AD95067
:1000F000190FE96EDACFEAFF4C0EEE6E6F0EEE6E60
:10010000730EEE6E740EEE6E200EEE6E520EEE6EEE
:10011000460EEE6EEE6A8FEC07F0EDEC03F0D9CFF1
:10012000E6FFDACFE6FF83EC04F0E552E552000982
:100130003CE1D950050FE96EDACFEAFFEFCF10F0BE
:10014000EE2A000EEFCF11F0EE22EFCF12F0EE22EA
:10015000EFCF13F0EF22D8901350000A08E6A00E5C
:10016000105C860E1158010E1258000E1358D7E37A
:10017000010EE66EE66A1FEC08F0E552E552D95032
:10018000190FE66E000EDA20E66EE66AE66ACFEC3C
:1001900007F0E552E552E552E552050EDB6A060E20
:1001A000DB6A070EDB6A080E62D0DF50640812E3D8
:1001B000DF50106E116AD950030FE96EDACFEAFFF3
:1001C0001050EE261150ED22010EDB2A020EA7E39D
:1001D000DB2AA5D7D950090FE66E000EDA20E66EAD
:1001E000010EDBCFE6FF020EDBCFE6FF12D9E552B0
:1001F000E552E552E552D950110FE66E000EDA20B5
:10020000E66E030EDBCFE6FF040EDBCFE6FF01D97F
:10021000E552E552E552E552010EE66EE66A1FEC44
:1002200008F0E552E552D950090FE66E000EDA20CB
:10023000E66EE66AE66ACFEC07F0E552E552E55273
:10024000E552D950110FE66E000EDA20E66EE66A2E
:10025000400EE66ECFEC07F0E552E552E552E5526E
:10026000030EDB6A040EDB6A010EDB6A020EDB6A38
:1002700056D7D9CFE6FFE1CFD9FF310EE126D9CF4E
:10028000E9FFDACFEAFF490EEE6E6E0EEE6E690EF2
:10029000EE6E740EEE6E690EEE6E610EEE6E6C0E0C
:1002A000EE6E540EEE6E650EEE6E780EEE6E740E01
:1002B000EE6EEE6AE70EF36E0C0EF3CFDBFFE70E89
:1002C000F36E0D0EF3CFDBFFE70EF36E0E0EF3CFE2
:1002D000DBFFE70EF36E0F0EF3CFDBFFE70EF36EDF
:1002E000100EF3CFDBFF8FEC07F0010EE66ED95056
:1002F0000C0FE66E000EDA20E66E0EEC03F0E5520F
:10030000E552E552D9CFE6FFDACFE6FFE66AE66AC4
:10031000CFEC07F0E552E552E552E552D950110F06
:10032000E66E000EDA20E66EF4EC04F0E552E552DB
:100330000009F4E1D950110FE66E000EDA20E66EE6
:10034000E5D7D9CFE6FFE1CFD9FF250EE126D9CFFA
:10035000E9FFDACFEAFF530EEE6E680EEE6E6F0E17
:10036000EE6E630EEE6E6B0EEE6E420EEE6E750E60
:10037000EE6E720EEE6E730EEE6E740EEE6E200E5C
:10038000EE6EEE6AEE6AEE6AEE6AEE6AEE6AEE6AA9
:10039000EE6AEE6AEE6AEE6AEE6AEE6AEE6AEE6A9D
:1003A000EE6AEE6AEE6AEE6AEE6AEE6AE70EF36EE7
:1003B000200EF3CFDBFFE70EF36E210EF3CFDBFF52
:1003C000E70EF36E220EF3CFDBFFE70EF36E230E84
:1003D000F3CFDBFFE70EF36E240EF3CFDBFFE66A0D
:1003E000D950200FE66E000EDA20E66E0EEC03F018
:1003F000E552E552E5520A0EE66E8AEC05F0E5524A
:10040000200EE66ED9CFE6FFDACFE6FFB8EC04F0B7
:10041000EFD7D9CFE6FFE1CFD9FF0C0EE126FD0ED5
:10042000DB50DF6E010EDB6A020EDB6AD950030F70
:10043000E96EDACFEAFF200EEE6EEE6EEE6EEE6E35
:10044000EE6EEE6EEE6EEE6EEE6AFD0EDBCF14F02B
:10045000FE0EDBCF15F00A0E0D6E0E6A14C008F00A
:1004600015C009F08CEC08F004C014F005C015F0BC
:10047000300E1426000E1522D950030F106EDACF5D
:1004800011F0010EDBCFF3FFDB2AF350126E136A7B
:1004900012BE136810501224E96E11501320EA6E38
:1004A00014C0EFFFD950FD0FE96EFF0EDA20EA6E9F
:1004B0000A0E0D6E0E6AEECF08F0EDCF09F08CEC4F
:1004C00008F008C0EEFF09C0EDFFD950FD0FE96E3E
:1004D000FF0EDA20EA6EEE50ED10B7E1020EDB6A95
:1004E000DBCF10F0010EDB50E76E1018E8AE02D043
:1004F000E73402D0E750105C2DE2D950030F126EA2
:10050000DACF13F0020EDBCFE6FF010EDB04E5527B
:10051000D880E754146E156A14BE1568125014245E
:10052000E96E13501520EA6EEF50E66E020EDBCF37
:1005300010F0116A10BE1168FB0EDB501024E96E3A
:10054000FC0EDB501120EA6EE552E750EF6E020E12
:10055000DB2AC6D7020EDBCF10F0116A10BE11687D
:10056000FB0EDB501024E96EFC0EDB501120EA6E0E
:10057000EF6A0C0EE15C02E2E16AE552E16EE552DF
:10058000E7CFD9FF1200D9CFE6FFE1CFD9FF0A0E9E
:10059000E126D950010FE96EDACFEAFF6F0EEE6E59
:1005A0006B0EEE6E610EEE6E790EEE6EEE6AD95047
:1005B000060FE96EDACFEAFF620EEE6E610EEE6EA6
:1005C000640EEE6EEE6AD9CFE6FFDACFE6FF83EC7B
:1005D00004F0E552E5520009F6E0F40EDF5C03E1B9
:1005E000D950010F02D0D950060FE66E000EDA2066
:1005F000E66EE66AE66ACFEC07F0E552E552E552B0
:08060000E552E1D794801200DD
:08060800700ED312806A300E5F
:10061000926E0F0EC16E070EB46E1200D9CFE6FFB8
:10062000E1CFD9FFE65280908082809498DAE66A22
:10063000020EE66E8CEC06F0E552E552E66A010E1B
:10064000E66E8CEC06F0E552E552010EE66E020E07
:10065000E66E8CEC06F0E552E552010EE66EE66EB3
:100660008CEC06F0E552E552010EE66E020EE66EE7
:10067000E8D9E552E5521F0EE66E040EE66E8CECEC
:1006800006F0E552E552030EE66EE66E8CEC06F0DF
:10069000E552E552FC0EDB5006E1E66AE66AD1D986
:1006A000E552E5520FD0010EE66EE66ACAD9E55270
:1006B000E552200EE66E110EE66E8CEC06F0E55269
:1006C000E5528080120EE66E050EE66E8CEC06F0AA
:1006D000E552E552010EE66EE66EB3D9E552E552FB
:1006E000050EE66E17DAE552E552E552E7CFD9FF7F
:1006F0001200D9CFE6FFE1CFD9FF050EE126E70EC4
:10070000DF6EDE52DD6EF36E020EF3CFDBFFE70E1F
:10071000F36E030EF3CFDBFFE70EF36E040EF3CFA1
:10072000DBFF8090808280941ADAE66AE66A8CECBD
:1007300006F0E552E552380EE66EE66A8CEC06F0FD
:10074000E552E552E66A040EE66E8CEC06F0E552E0
:10075000E552030EE66EE66E8CEC06F0E552E552CD
:10076000070EE66E060EE66E8CEC06F0E552E552DC
:10077000020EE66E050EE66E8CEC06F0E552E552D2
:10078000050EE66ED9CFE6FFDACFE6FF100EE66E75
:10079000B0EC06F0E552E552E552E552050EE66E84
:1007A000D9CFE6FFDACFE6FF0A0EE66EB0EC06F030
:1007B000E552E552E552E552E66A010EE66E8CEC32
:1007C00006F0E552E552050EE15C02E2E16AE5520F
:1007D000E16EE552E7CFD9FF1200D9CFE6FFE1CFB6
:1007E000D9FF050EE126E70EDF6EDE52DD6EF36EF9
:1007F000020EF3CFDBFFE70EF36E030EF3CFDBFF4A
:10080000E70EF36E040EF3CFDBFF809080828094BE
:10081000A6D9390EE66EE66A8CEC06F0E552E55292
:10082000E66A010EE66E8CEC06F0E552E552030E28
:10083000E66EE66E8CEC06F0E552E552070EE66ECB
:10084000060EE66E8CEC06F0E552E552010EE66E01
:10085000110EE66E8CEC06F0E552E552020EE66EE5
:10086000050EE66E8CEC06F0E552E552050EE66EDE
:10087000D9CFE6FFDACFE6FF100EE66EB0EC06F059
:10088000E552E552E552E552010EE66EE66ED9D824
:10089000E552E5528080050EE66E3CD9E552050E24
:1008A000E15C02E2E16AE552E16EE552E7CFD9FF91
:1008B0001200D9CFE6FFE1CFD9FF8090700EE66E2F
:1008C000070EE66E8CEC06F0E552E552010EE66E80
:1008D000E66EB7D8E552E552050EE66E1BD9E55235
:1008E000E10EE66E31EC06F0E552FE0EDBCFE6FFE0
:1008F000A00EE66E44EC06F0E552E552EFD8E55264
:10090000E7CFD9FF1200D9CFE6FFE1CFD9FF400EE4
:10091000E66EC9D8E552000902E1000E25D08090AC
:10092000E668610EE66E44EC06F0E552E552E66ECE
:10093000FD0EDBCFE9FFFE0EDBCFEAFFE552E7500D
:10094000EF6EE20EE66E31EC06F0E552400EE66E1A
:10095000070EE66E8CEC06F0E552E5528080050E3F
:10096000E66ED8D8E552010EE552E7CFD9FF120066
:10097000D9CFE6FFE1CFD9FF8090FC0EDB502008F5
:1009800002E2010E2DD0700EE66E070EE66E8CECC4
:1009900006F0E552E552200EE66EFD0EDBCFE6FFD7
:1009A000FE0EDBCFE6FFA00EE66E5CEC06F0E55235
:1009B000E552E552E55292D8100EE66E74D8E55233
:1009C000000907E0E10EE66E31EC06F0E552020E9A
:1009D00007D0200EE66E67D8E5520009EDE0000E64
:1009E000E552E7CFD9FF1200D9CFE6FFE1CFD9FF1B
:1009F000400EE66E58D8E552000902E1010E1DD006
:100A00008090200EE66EFD0EDBCFE6FFFE0EDBCF04
:100A1000E6FF52EC07F0E552E552E552E20EE66ED3
:100A200031EC06F0E552400EE66E070EE66E8CECF9
:100A300006F0E552E5528080000EE552E7CFD9FF7F
:100A40001200D9CFE6FFE1CFD9FFE652DF6AE66AAE
:100A5000DDEC06F0E552DF6EFD0EDB500CE0010E22
:100A6000F36EFE0EDB5004E0D890F336E806FCE1AE
:100A7000F350DF120CD0010EF36EFE0EDB5004E0DB
:100A8000D890F336E806FCE1F350F31CDF16DFCF15
:100A9000E6FFE66A8CEC06F0E552E552E552E552D7
:100AA000E7CFD9FF1200D9CFE6FFE1CFD9FFE65259
:100AB00080AA02D0000E0DD0E66831EC06F0E552B7
:100AC000F00BDF6EFE0EDB50DF1402E0010E01D0F2
:100AD000000EE552E552E7CFD9FF1200D9CFE6FF6D
:100AE000E1CFD9FFE652DF6A8080DF6ADF50106E07
:100AF000116AD890115004E6960E105C000E115841
:100B000003E22DD8DF2AF2D78090E552E552E7CFF5
:100B1000D9FF1200D9CFE6FFE1CFD9FF020EE126BF
:100B2000010EDB6AFE0EDB50F36E010EDBCFF4FF2D
:100B3000F350F45C0AE2DF6A610EDF5C03E20FD877
:100B4000DF2AFAD7010EDB2AEDD7020EE15C02E2C2
:100B5000E16AE552E16EE552E7CFD9FF12001200DB
:100B6000D9CFE6FFE1CFD9FF020EE126010EDB6A05
:100B7000DF6A080EDF5C25E2FE0EDBAE02D0808667
:100B800001D080968084010EDBCFF3FFF39EF34605
:100B9000F3CFDBFF8050100B01E0010E106E010E51
:100BA000DBCFE7FF1050E712010EE7CFDBFF8094A9
:100BB000FE0EDBCFF3FFF39EF346F3CFDBFFDF2A1E
:100BC000D8D7010EDB50106E020EE15C02E2E16A42
:100BD000E552E16E1050E552E7CFD9FF1200D9CFB0
:100BE000E6FFE1CFD9FF030EE126DF6ADF6AFC0EE4
:100BF000DB50DF5C22E2DF50E76EFD0EDBCFE9FF6A
:100C0000FE0EDBCFEAFFE750E926000EEA22EF50A6
:100C1000E66EA6DFE552E66EDF50E76E010EDBCF33
:100C2000E9FF020EDBCFEAFFE750E926000EEA22D9
:100C3000E552E750EF6EDF2ADAD7010EDBCF10F076
:100C4000020EDBCF11F010C0F3FF11C0F4FF030E52
:100C5000E15C02E2E16AE552E16EE552E7CFD9FFDD
:100C60001200D9CFE6FFE1CFD9FFE6528092FE0E07
:100C7000DBCFE6FF75DFE552DF6E8082DF50E552A5
:100C8000E552E7CFD9FF1200D9CFE6FFE1CFD9FF78
:100C9000E6528092FE0EDBCFE6FF62DFE552FD0EEC
:100CA000DBCFE6FF5DDFE552DF6E8082DF50E5528D
:100CB000E552E7CFD9FF1200D9CFE6FFE1CFD9FF48
:100CC000020EE1268092FE0EDBCFE6FF49DFE55201
:100CD000FB0EDBCFE6FFFC0EDBCFE6FFFD0EDBCF2E
:100CE000E6FF7DDFE552E552E552F3CFDEFFF4CFBC
:100CF000DDFF8082DECF10F0DDCF11F010C0F3FFFA
:100D000011C0F4FF020EE15C02E2E16AE552E16E1D
:100D1000E552E7CFD9FF1200D9CFE6FFE1CFD9FFE7
:100D2000E652FE0EDB5017080AE2FE0EDB501D08ED
:100D300006E0FE0EDB501C0802E0000E0CD0FE0E9A
:100D4000DB50200FDF6EFD0EDBCFE6FFDFCFE6FFCF
:100D50009BDFE552E552E552E552E7CFD9FF12009D
:100D6000D9CFE6FFE1CFD9FFE652FE0EDB500A08ED
:100D700008E1FE0EDB500B0804E1FE0EDB5010080C
:100D800003E0F36AF46A14D0FE0EDB50200FDF6E2E
:100D9000FB0EDBCFE6FFFC0EDBCFE6FFFD0EDBCF6D
:100DA000E6FFDFCFE6FF88DFE552E552E552E55288
:100DB000E552E552E7CFD9FF1200D9CFE6FFE1CFE8
:100DC000D9FFE652FE0EDB5017080AE2FE0EDB509A
:100DD0001D0806E0FE0EDB501C0802E0000E09D0E4
:100DE000FE0EDB50DF6EE668DFCFE6FF4DDFE5523B
:100DF000E552E552E552E7CFD9FF1200D9CFE6FF21
:100E0000E1CFD9FF020EE126010EDB6ADF6A080E90
:100E1000DF5C18E28084010EDBCFF3FFF39EF34624
:100E2000F3CFDBFF8050100B01E0010E106E010EBE
:100E3000DBCFE7FF1050E712010EE7CFDBFF809416
:100E4000DF2AE5D7010EDB50106E020EE15C02E2F4
:100E5000E16AE552E16E1050E552E7CFD9FF12008A
:100E6000D9CFE6FFE1CFD9FFE652DF6AFC0EDB50B7
:100E7000DF5C13E2C3DFE66EDF50E76EFD0EDBCF13
:100E8000E9FFFE0EDBCFEAFFE750E926000EEA227B
:100E9000E552E750EF6EDF2AE9D7E552E552E7CF9A
:100EA000D9FF1200D9CFE6FFE1CFD9FF8092610EC2
:100EB000E66E56DEE552FC0EDBCFE6FFFD0EDBCF25
:100EC000E6FFFE0EDBCFE6FFCBDFE552E552E55253
:0A0ED0008082E552E7CFD9FF12003F
:060EDA00D9CFE6FFE1CFD5
:100EE000D9FFFE0EDB5005E008D807D8FE0EDB0662
:100EF000F8D7E552E7CFD9FF1200D9CFE6FFE1CF0F
:100F0000D9FFE652DF6A620EDF5C04E2AFEC05F067
:100F1000DF2AF9D7E552E552E7CFD9FF1200826AFE
:100F2000949A949C949E816A9368190EE66ED5DF1C
:100F3000E552300EE66EE66A6AD8E552E552050ED5
:100F4000E66ECBDFE552300EE66EE66A60D8E5521B
:100F5000E552D3DF300EE66EE66A59D8E552E55227
:100F6000380EE66EE66A6BD8E552E5520C0EE66E78
:100F7000E66A65D8E552E552010EE66EE66A5FD88C
:100F8000E552E552060EE66EE66A59D8E552E5529C
:100F9000020EE66EE66A53D8E552E5521200D9CF4A
:100FA000E6FFE1CFD9FFFE0EDB5005E0400EF36E09
:100FB000FE0EF3CFDBFFFD0EDBCFE6FFFE0EDB50B8
:100FC0008009E552E710E66EE66A39D8E552E55247
:100FD000FB0EDBCFE9FFFC0EDBCFEAFFEF5013E0A7
:100FE000FB0EDBCFE9FFFC0EDBCFEAFFEF50E66E36
:100FF000010EE66E24D8E552E552FB0EDB2AFC0E0C
:10100000E7E3DB2AE5D7E552E7CFD9FF1200D9CFD6
:10101000E6FFE1CFD9FFFE0EDB50E8B0828AE8A000
:10102000829A829CFD0EDB50816E936A828EAFECB9
:1010300005F0829E9368E552E7CFD9FF1200D9CF21
:10104000E6FFE1CFD9FFE652829A828C9368828EC6
:10105000AFEC05F08150DF6E829EDFBEF5D7FD0E4E
:10106000DBCFE6FFFE0EDBCFE6FFD1DFE552E55238
:0A107000E552E552E7CFD9FF120068
:06107A00060EF66E000EEA
:10108000F76E000EF86E00010900F550856F09003B
:10109000F550866F03E1856701D03DD00900F5501A
:1010A000806F0900F550816F0900F550826F0900CB
:1010B0000900F550E96E0900F550EA6E09000900D3
:1010C0000900F550836F0900F550846F090009008D
:1010D000F6CF87F0F7CF88F0F8CF89F080C0F6FF21
:1010E00081C0F7FF82C0F8FF0001835302E18453FF
:1010F00007E00900F550EE6E8307F8E28407F9D7A0
:1011000087C0F6FF88C0F7FF89C0F8FF0001850798
:08111000000E865BBFD7120040
:08111800006A0EAE95EF08F02D
:101120000D6C0E1EE86A0E22001E09AE9DEF08F03F
:10113000086C091EE86A0922001EB2EC08F009BE1C
:10114000ADEF08F000AE000C086C091EE86A092239
:10115000046C051EE86A0522000C00BEA4EF08F02E
:041160000188FF0CF7
:0C116400056A046A100EE76ED890083689
:101170000936043605360D50045C0E50055805E35B
:101180000D50045E0E50055A082AE72EF0D71200C3
:10119000000EF36E00EE00F0060E01D81200EA60B9
:1011A00002D0EE6AFCD7F350E9601200EE6AFCD779
:1011B00015EE00F025EE00F0F86A019C3DEC08F019
:0C11C000E6EC08F004EC00F0FBD7120095
:0211CC0012000F
:020000040030CA
:0100010008F6
:0100020018E5
:010003001EDE
:0100050001F9
:010006008079
:00000001FF
