:020000040000FA
:06000000F3EF07F012000F
:020006000000F8
:08000800700ED312806A300E65
:10001000926E0F0EC16E070EB46E1200D9CFE6FFBE
:10002000E1CFD9FF050EE126E70EDF6EDE52DD6E71
:10003000F36E020EF3CFDBFFE70EF36E030EF3CF8A
:10004000DBFFE70EF36E040EF3CFDBFF80908082C0
:10005000809499DA0B0EE66EE66A17EC06F0E5522C
:10006000E552010EE66EE66E17EC06F0E552E5523B
:100070000F0EE66E040EE66E17EC06F0E552E55242
:10008000730EE66E500EE66EE3EC05F0E552E552B7
:10009000040EE66E1D0EE66E17EC06F0E552E55214
:1000A000010EE66E1C0EE66E17EC06F0E552E55208
:1000B000050EE66ED9CFE6FFDACFE6FF0A0EE66E52
:1000C0003BEC06F0E552E552E552E552050EE66ED0
:1000D000D9CFE6FFDACFE6FF100EE66E3BEC06F076
:1000E000E552E552E552E552050EE15C02E2E16AB5
:1000F000E552E16EE552E7CFD9FF1200D9CFE6FF16
:10010000E1CFD9FF050EE126E70EDF6EDE52DD6E90
:10011000F36E020EF3CFDBFFE70EF36E030EF3CFA9
:10012000DBFFE70EF36E040EF3CFDBFF80908082DF
:10013000809429DA0A0EE66EE66A17EC06F0E552BC
:10014000E552010EE66EE66E17EC06F0E552E5525A
:100150000F0EE66E040EE66E17EC06F0E552E55261
:10016000730EE66E500EE66EE3EC05F0E552E552D6
:10017000040EE66E1D0EE66E17EC06F0E552E55233
:10018000010EE66E1C0EE66E17EC06F0E552E55227
:10019000050EE66ED9CFE6FFDACFE6FF0A0EE66E71
:1001A0003BEC06F0E552E552E552E552050EE66EEF
:1001B000D9CFE6FFDACFE6FF100EE66E3BEC06F095
:1001C000E552E552E552E552050EE15C02E2E16AD4
:1001D000E552E16EE552E7CFD9FF1200D9CFE6FF35
:1001E000E1CFD9FF050EE126E70EDF6EDE52DD6EB0
:1001F000F36E020EF3CFDBFFE70EF36E030EF3CFC9
:10020000DBFFE70EF36E040EF3CFDBFF80908082FE
:100210008094B9D9380EE66EE66A17EC06F0E5521E
:10022000E552E66A040EE66E17EC06F0E552E5527A
:10023000030EE66EE66E17EC06F0E552E552070E89
:10024000E66E060EE66E17EC06F0E552E552020E7B
:10025000E66E050EE66E17EC06F0E552E552050E69
:10026000E66ED9CFE6FFDACFE6FF100EE66E3BEC86
:1002700006F0E552E552E552E552E66A010EE66EF9
:1002800017EC06F0E552E552050EE15C02E2E16A88
:10029000E552E16EE552E7CFD9FF1200D9CFE6FF74
:1002A000E1CFD9FF050EE126E70EDF6EDE52DD6EEF
:1002B000F36E020EF3CFDBFFE70EF36E030EF3CF08
:1002C000DBFFE70EF36E040EF3CFDBFF809080823E
:1002D000809459D9390EE66EE66A17EC06F0E552BD
:1002E000E552E66A010EE66E17EC06F0E552E552BD
:1002F000030EE66EE66E17EC06F0E552E552070EC9
:10030000E66E060EE66E17EC06F0E552E552010EBB
:10031000E66E110EE66E17EC06F0E552E552020E9F
:10032000E66E050EE66E17EC06F0E552E552050E98
:10033000E66ED9CFE6FFDACFE6FF100EE66E3BECB5
:1003400006F0E552E552E552E5523B0EE66EE66AEE
:1003500017EC06F0E552E5528080050EE15C02E202
:10036000E16AE552E16EE552E7CFD9FF1200D9CF3D
:10037000E6FFE1CFD9FF700EE66E070EE66E17ECD2
:1003800006F0E552E5523A0EE66EE66A17EC06F024
:10039000E552E552E10EE66ED0EC05F0E552FE0EB8
:1003A000DBCFE6FFA00EE66EE3EC05F0E552E5528A
:1003B0008080FE0EDB6ADB50106E116AD8901150FF
:1003C00004E6960E105C000E115804E2DCD8FE0E16
:1003D000DB2AF1D78090E552E7CFD9FF1200D9CFC1
:1003E000E6FFE1CFD9FFE652700EE66E070EE66E2D
:1003F00017EC06F0E552E5523A0EE66EE66A17ECA7
:1004000006F0E552E552E10EE66ED0EC05F0E5525D
:10041000A00EE66ED0EC05F0E552FC0EDBCFE6FF59
:10042000FD0EDBCFE6FFFE0EDBCFE6FF84EC05F032
:10043000E552E552E5528080DF6ADF50106E116AA6
:10044000D890115004E6960E105C000E115803E28D
:100450009AD8DF2AF2D78090E552E552E7CFD9FF4C
:100460001200D9CFE6FFE1CFD9FF400EE66E64D887
:10047000E552000902E1000E1FD0E66A610EE66E49
:10048000E3EC05F0E552E552E66EFD0EDBCFE9FF49
:10049000FE0EDBCFEAFFE552E750EF6EE20EE66EAE
:1004A000D0EC05F0E552400EE66E070EE66E17EC56
:1004B00006F0E552E552010EE552E7CFD9FF1200F2
:1004C000D9CFE6FFE1CFD9FFE65280BA06D0400E81
:1004D000E66E32D8E552000902E1000E28D0E66A45
:1004E000600EE66EE3EC05F0E552E552DF6E610E5C
:1004F000E66ED0EC05F0E552DFCFE6FFFD0EDBCF78
:10050000E6FFFE0EDBCFE6FF23EC05F0E552E552F9
:10051000E552E20EE66ED0EC05F0E552400EE66ED6
:10052000070EE66E17EC06F0E552E552DF50E55295
:10053000E552E7CFD9FF1200D9CFE6FFE1CFD9FFCF
:10054000E652E668D0EC05F0E552DF6EFE0EDB50B9
:10055000DF1402E0010E01D0000EE552E552E7CFB4
:10056000D9FF1200D9CFE6FFE1CFD9FFE652DF6A0B
:10057000610EDF5C03E207D8DF2AFAD7E552E552C5
:08058000E7CFD9FF12001200C1
:080588002ADA04EC00F082B055
:1005900039D8CBEF02F0D9CFE6FFE1CFD9FF030E78
:1005A000E126010EF36E020EF3CFDBFFEEEC00F05E
:1005B000DE6ADD6ADECF10F0DDCF11F0D890115089
:1005C00004E6C80E105C000E115805E2DF2A010E89
:1005D000F1E3DB2AEFD7020EDBCFF3FFDB2AF35088
:1005E000E66EB7EC01F0E552020EDB506408E0E283
:1005F000E668B7EC01F0E552010EF36E020EF3CFA0
:10060000DBFFD6D7D9CFE6FFE1CFD9FF210EE12618
:10061000010EDB6A020EDB6A030EDB6A040EDB6A84
:10062000050EDB6A060EDB6A070EDB6A080EDB6A64
:10063000D950090FE96EDACFEAFF200EEE6EEE6EAA
:10064000EE6EEE6EEE6EEE6EEE6EEE6AD950110F3D
:10065000E96EDACFEAFF200EEE6EEE6EEE6EEE6E13
:10066000EE6EEE6EEE6EEE6AD950190FE96EDACFCD
:10067000EAFF4C0EEE6E6F0EEE6E730EEE6E740EA3
:10068000EE6E200EEE6E520EEE6E460EEE6EEE6AC0
:10069000AAEC06F04EEC01F0D9CFE6FFDACFE6FF88
:1006A00031EC02F0E552E55200093CE1D950050F6A
:1006B000E96EDACFEAFFEFCF10F0EE2A000EEFCFAF
:1006C00011F0EE22EFCF12F0EE22EFCF13F0EF2277
:1006D000D8901350000A08E6E00E105C930E1158F3
:1006E000040E1258000E1358D7E3010EE66EE66AA8
:1006F0003AEC07F0E552E552D950190FE66E000EBC
:10070000DA20E66EE66AE66AEAEC06F0E552E552C1
:10071000E552E552050EDB6A060EDB6A070EDB6A60
:10072000080E62D0DF50640812E3DF50106E116AC9
:10073000D950030FE96EDACFEAFF1050EE261150C0
:10074000ED22010EDB2A020EA7E3DB2AA5D7D95042
:10075000090FE66E000EDA20E66E010EDBCFE6FF33
:10076000020EDBCFE6FF42D8E552E552E552E552F4
:10077000D950110FE66E000EDA20E66E030EDBCFC5
:10078000E6FF040EDBCFE6FF31D8E552E552E55235
:10079000E552010EE66EE66A3AEC07F0E552E552E4
:1007A000D950090FE66E000EDA20E66EE66AE66AB8
:1007B000EAEC06F0E552E552E552E552D950110F48
:1007C000E66E000EDA20E66EE66A400EE66EEAECB1
:1007D00006F0E552E552E552E552030EDB6A040EDF
:1007E000DB6A010EDB6A020EDB6A56D7D9CFE6FF61
:1007F000E1CFD9FF0C0EE126FD0EDB50DF6E010EBE
:10080000DB6A020EDB6AD950030FE96EDACFEAFF2A
:10081000200EEE6EEE6EEE6EEE6EEE6EEE6EEE6E26
:10082000EE6EEE6AFD0EDBCF14F0FE0EDBCF15F0A0
:100830000A0E0D6E0E6A14C008F015C009F0A7EC80
:1008400007F004C014F005C015F0300E1426000E99
:100850001522D950030F106EDACF11F0010EDBCF45
:10086000F3FFDB2AF350126E136A12BE13681050A6
:100870001224E96E11501320EA6E14C0EFFFD95014
:10088000FD0FE96EFF0EDA20EA6E0A0E0D6E0E6A9B
:10089000EECF08F0EDCF09F0A7EC07F008C0EEFFAF
:1008A00009C0EDFFD950FD0FE96EFF0EDA20EA6EA8
:1008B000EE50ED10B7E1020EDB6ADBCF10F0010E57
:1008C000DB50E76E1018E8AE02D0E73402D0E750F4
:1008D000105C2DE2D950030F126EDACF13F0020E26
:1008E000DBCFE6FF010EDB04E552D880E754146E3F
:1008F000156A14BE156812501424E96E13501520A1
:10090000EA6EEF50E66E020EDBCF10F0116A10BEF9
:100910001168FB0EDB501024E96EFC0EDB50112039
:10092000EA6EE552E750EF6E020EDB2AC6D7020EE2
:10093000DBCF10F0116A10BE1168FB0EDB501024E3
:10094000E96EFC0EDB501120EA6EEF6A0C0EE15CE2
:1009500002E2E16AE552E16EE552E7CFD9FF12000B
:10096000D9CFE6FFE1CFD9FF0A0EE126D950010F1A
:10097000E96EDACFEAFF6F0EEE6E6B0EEE6E610E71
:10098000EE6E790EEE6EEE6AD950060FE96EDACF92
:10099000EAFF620EEE6E610EEE6E640EEE6EEE6AB1
:1009A000D9CFE6FFDACFE6FF31EC02F0E552E552AF
:1009B0000009F6E0F40EDF5C03E1D950010F02D02C
:1009C000D950060FE66E000EDA20E66EE66AE66A99
:1009D000EAEC06F0E552E552E552E552E1D79480A3
:0209E000120003
:0E09E200D9CFE6FFE1CFD9FF020EE126010ECC
:1009F000DB6ADF6A080EDF5C18E28084010EDBCF61
:100A0000F3FFF39EF346F3CFDBFF8050100B01E0C2
:100A1000010E106E010EDBCFE7FF1050E712010E42
:100A2000E7CFDBFF8094DF2AE5D7010EDB50106EA5
:100A3000020EE15C02E2E16AE552E16E1050E5521D
:100A4000E7CFD9FF1200D9CFE6FFE1CFD9FFE652B9
:100A5000DF6AFC0EDB50DF5C13E2C3DFE66EDF50C3
:100A6000E76EFD0EDBCFE9FFFE0EDBCFEAFFE750BE
:100A7000E926000EEA22E552E750EF6EDF2AE9D7B9
:100A8000E552E552E7CFD9FF1200D9CFE6FFE1CF1B
:100A9000D9FF020EE126010EDB6ADF6A080EDF5C79
:100AA00025E2FE0EDBAE02D0808601D080968084E7
:100AB000010EDBCFF3FFF39EF346F3CFDBFF805055
:100AC000100B01E0010E106E010EDBCFE7FF10509E
:100AD000E712010EE7CFDBFF8094FE0EDBCFF3FFC2
:100AE000F39EF346F3CFDBFFDF2AD8D7010EDB50AE
:100AF000106E020EE15C02E2E16AE552E16E105016
:100B0000E552E7CFD9FF1200D9CFE6FFE1CFD9FFF9
:100B1000030EE126DE6ADD6ADE6ADD6ADECF10F0F2
:100B2000DDCF11F0FC0EDB50000111AE02D0D890E9
:100B300003D0105C000E115824E2FD0EDBCF12F042
:100B4000FE0EDBCF13F0DE501224E96EDD501320D1
:100B5000EA6EEF50E66E99DFE552E66ED950020F6D
:100B6000106EDACF11F0DE501024E96EDD50112046
:100B7000EA6EE552E750EF6EDF2A010ECFE3DB2A83
:100B8000CDD7D950020FF36EDACFF4FF030EE15C3C
:100B900002E2E16AE552E16EE552E7CFD9FF1200C9
:100BA000D9CFE6FFE1CFD9FFE6528092FE0EDBCF30
:100BB000E6FF6BDFE552DF6E8082DF50E552E552E3
:100BC000E7CFD9FF1200D9CFE6FFE1CFD9FFE65238
:100BD0008092FE0EDBCFE6FF58DFE552FD0EDBCF45
:100BE000E6FF53DFE552DF6E8082DF50E552E552CB
:100BF000E7CFD9FF1200D9CFE6FFE1CFD9FF80922E
:100C0000FE0EDBCFE6FF41DFE552FB0EDBCFE6FF5A
:100C1000FC0EDBCFE6FFFD0EDBCFE6FF75DFE55216
:100C2000E552E5528082E552E7CFD9FF1200D9CFD5
:100C3000E6FFE1CFD9FFE652FE0EDB5017080AE2CD
:100C4000FE0EDB501D0806E0FE0EDB501C0802E025
:100C5000000E0CD0FE0EDB50200FDF6EFD0EDBCF42
:100C6000E6FFDFCFE6FFAFDFE552E552E552E552A2
:100C7000E7CFD9FF1200D9CFE6FFE1CFD9FFE65287
:100C8000FE0EDB500A0808E1FE0EDB500B0804E103
:100C9000FE0EDB50100803E0F36AF46A14D0FE0E77
:100CA000DB50200FDF6EFB0EDBCFE6FFFC0EDBCF51
:100CB000E6FFFD0EDBCFE6FFDFCFE6FF9CDFE55270
:100CC000E552E552E552E552E552E7CFD9FF120071
:100CD000D9CFE6FFE1CFD9FFE652FE0EDB50170871
:100CE0000AE2FE0EDB501D0806E0FE0EDB501C087B
:100CF00002E0000E08D0FE0EDB50DF6EDFCFE6FF15
:100D00004FDFE5526EDEE552E552E7CFD9FF120024
:100D1000D9CFE6FFE1CFD9FFFE0EDB5005E008D8C2
:100D200007D8FE0EDB06F8D7E552E7CFD9FF120051
:100D3000D9CFE6FFE1CFD9FFE652DF6A620EDF5C72
:100D400004E2C3EC02F0DF2AF9D7E552E552E7CF1F
:100D5000D9FF1200826A949A949C949E816A936847
:100D6000190EE66ED5DFE552300EE66EE66A6AD8F9
:100D7000E552E552050EE66ECBDFE552300EE66E2B
:100D8000E66A60D8E552E552D3DF300EE66EE66AD9
:100D900059D8E552E552380EE66EE66A6BD8E55250
:100DA000E5520C0EE66EE66A65D8E552E552010E94
:100DB000E66EE66A5FD8E552E552060EE66EE66A32
:100DC00059D8E552E552020EE66EE66A53D8E5526E
:100DD000E5521200D9CFE6FFE1CFD9FFFE0EDB507E
:100DE00005E0400EF36EFE0EF3CFDBFFFD0EDBCF12
:100DF000E6FFFE0EDB508009E552E710E66EE66A7C
:100E000039D8E552E552FB0EDBCFE9FFFC0EDBCF14
:100E1000EAFFEF5013E0FB0EDBCFE9FFFC0EDBCF68
:100E2000EAFFEF50E66E010EE66E24D8E552E55279
:100E3000FB0EDB2AFC0EE7E3DB2AE5D7E552E7CF22
:100E4000D9FF1200D9CFE6FFE1CFD9FFFE0EDB506C
:100E5000E8B0828AE8A0829A829CFD0EDB50816E07
:100E6000936A828EC3EC02F0829E9368E552E7CFCC
:100E7000D9FF1200D9CFE6FFE1CFD9FFE652829A1F
:100E8000828C9368828EC3EC02F08150DF6E829E6A
:100E9000DFBEF5D7FD0EDBCFE6FFFE0EDBCFE6FFB4
:100EA000D1DFE552E552E552E552E7CFD9FF120016
:100EB000060EF66E000EF76E000EF86E00010900C9
:100EC000F550856F0900F550866F03E1856701D005
:100ED0003DD00900F550806F0900F550816F090081
:100EE000F550826F09000900F550E96E0900F550D0
:100EF000EA6E090009000900F550836F0900F550FA
:100F0000846F09000900F6CF87F0F7CF88F0F8CF9B
:100F100089F080C0F6FF81C0F7FF82C0F8FF0001B2
:100F2000835302E1845307E00900F550EE6E830716
:100F3000F8E28407F9D787C0F6FF88C0F7FF89C0B9
:0E0F4000F8FF00018507000E865BBFD7120088
:020F4E00006A37
:100F50000EAEB0EF07F00D6C0E1EE86A0E22001EFA
:100F600009AEB8EF07F0086C091EE86A0922001EF6
:100F7000CDEC07F009BEC8EF07F000AE000C086C1E
:100F8000091EE86A0922046C051EE86A0522000CA5
:0A0F900000BEBFEF07F00188FF0C60
:060F9A00056A046A100E56
:100FA000E76ED89008360936043605360D50045CD5
:100FB0000E50055805E30D50045E0E50055A082AE0
:060FC000E72EF0D712003D
:0A0FC600000EF36E00EE00F0060EC0
:100FD00001D81200EA6002D0EE6AFCD7F350E96053
:060FE0001200EE6AFCD7CE
:0A0FE60015EE00F025EE00F0F86AA9
:100FF000019C58EC07F001EC08F0C4EC02F0FBD7C0
:021000001200DC
:021002001200DA
:020000040030CA
:0100010008F6
:0100020018E5
:010003001EDE
:0100050001F9
:010006008079
:00000001FF
