:020000040000FA
:060000002FEF09F01200D1
:020006000000F8
:0800080066DB6DEC03F082B031
:1000100039D80BEF00F0D9CFE6FFE1CFD9FF030EBF
:10002000E126010EF36E020EF3CFDBFFFDEC03F0D1
:10003000DE6ADD6ADECF10F0DDCF11F0D89011500E
:1000400004E6C80E105C000E115805E2DF2A010E0E
:10005000F1E3DB2AEFD7020EDBCFF3FFDB2AF3500D
:10006000E66EDDEC04F0E552020EDB506408E0E2DF
:10007000E668DDEC04F0E552010EF36E020EF3CFFC
:10008000DBFFD6D7D9CFE6FFE1CFD9FF210EE1269E
:10009000010EDB6A020EDB6A030EDB6A040EDB6A0A
:1000A000050EDB6A060EDB6A070EDB6A080EDB6AEA
:1000B000D950090FE96EDACFEAFF200EEE6EEE6E30
:1000C000EE6EEE6EEE6EEE6EEE6EEE6AD950110FC3
:1000D000E96EDACFEAFF200EEE6EEE6EEE6EEE6E99
:1000E000EE6EEE6EEE6EEE6AD950190FE96EDACF53
:1000F000EAFF4C0EEE6E6F0EEE6E730EEE6E740E29
:10010000EE6E200EEE6E520EEE6E460EEE6EEE6A45
:10011000E6EC07F06BEC04F0D9CFE6FFDACFE6FFB0
:1001200004EC05F0E552E55200093CE1D950050F19
:10013000E96EDACFEAFFEFCF10F0EE2A000EEFCF34
:1001400011F0EE22EFCF12F0EE22EFCF13F0EF22FC
:10015000D8901350000A08E6A00E105C860E1158C5
:10016000010E1258000E1358D7E3010EE66EE66A30
:1001700076EC08F0E552E552D950190FE66E000E04
:10018000DA20E66EE66AE66A26EC08F0E552E55209
:10019000E552E552050EDB6A060EDB6A070EDB6AE6
:1001A000080E62D0DF50640812E3DF50106E116A4F
:1001B000D950030FE96EDACFEAFF1050EE26115046
:1001C000ED22010EDB2A020EA7E3DB2AA5D7D950C8
:1001D000090FE66E000EDA20E66E010EDBCFE6FFB9
:1001E000020EDBCFE6FF7ED9E552E552E552E5523D
:1001F000D950110FE66E000EDA20E66E030EDBCF4B
:10020000E6FF040EDBCFE6FF6DD9E552E552E5527D
:10021000E552010EE66EE66A76EC08F0E552E5522C
:10022000D950090FE66E000EDA20E66EE66AE66A3D
:1002300026EC08F0E552E552E552E552D950110F8F
:10024000E66E000EDA20E66EE66A400EE66E26ECFA
:1002500008F0E552E552E552E552030EDB6A040E62
:10026000DB6A010EDB6A020EDB6A56D7D9CFE6FFE6
:10027000E1CFD9FF410EE126200EDB6A210EDB6AB9
:10028000220EDB6A230EDB6A240EDB6A250EDB6A94
:10029000D950260FE96EDACFEAFF200EEE6EEE6E31
:1002A000EE6EEE6EEE6EEE6EEE6EEE6AD9502E0FC4
:1002B000E96EDACFEAFF4C0EEE6E6F0EEE6E730E45
:1002C000EE6E740EEE6E200EEE6E520EEE6E460E5A
:1002D000EE6EEE6AD950360FE96EDACFEAFF450EC0
:1002E000EE6E370EEE6E450EEE6E370EEE6E450E6E
:1002F000EE6E370EEE6E450EEE6E370EEE6E450E5E
:10030000EE6E370EEE6EEE6AE6EC07F0010EE66E6C
:10031000D950360FE66E000EDA20E66E77EC03F069
:10032000E552E552E552D9502E0FE66E000EDA2066
:10033000E66EE66AE66A26EC08F0E552E552E5521A
:10034000E552D9CFE6FFDACFE6FF69EC05F0E552DA
:10035000E5520009F6E0FF0EDF5C06E0200EDB2A26
:10036000210EEFE3DB2AEDD7D950260FE66E000E03
:10037000DA20E66E200EDBCFE6FF210EDBCFE6FFB4
:10038000B1D8E552E552E552E552010EE66EE66A55
:1003900076EC08F0E552E552D950260FE66E000ED5
:1003A000DA20E66EE66AE66A26EC08F0E552E552E7
:1003B000E552E552D9CFE6FFDACFE6FFE66A400E16
:1003C000E66E26EC08F0E552E552E552E552200EC5
:1003D000DB6A210EDB6AB5D7D9CFE6FFE1CFD9FFC3
:1003E000160EE126D9CFE9FFDACFEAFF480EEE6E0E
:1003F000450EEE6E4C0EEE6EEE6E4F0EEE6EEE6A2B
:10040000080EDB6A090EDB6A0A0EDB68D9500B0F97
:10041000E96EDACFEAFF450EEE6E370EEE6E450E50
:10042000EE6E370EEE6E450EEE6E370EEE6E450E2C
:10043000EE6E370EEE6E450EEE6E370EEE6EEE6A17
:10044000E66AD9500B0FE66E000EDA20E66E77EC06
:1004500003F0E552E552E552080EDB6A090EDB6A4D
:10046000080EDBCF10F0090EDBCF11F0D890115041
:1004700004E6640E105C000E115829E2060EDB6AD9
:10048000070EDB6A060EDBCF10F0070EDBCF11F094
:10049000D890115004E6F40E105C010E115806E2DB
:1004A000060EDB2A070EEEE3DB2AECD71F0EE66E04
:1004B000D9CFE6FFDACFE6FF39EC05F0E552E55299
:1004C000E552080EDB2A090ECBE3DB2AC9D7010E61
:1004D000E66ED9500A0FE66E000EDA20E66E39ECB1
:1004E00005F0B7D7D9CFE6FFE1CFD9FF0C0EE12653
:1004F000FD0EDB50DF6E010EDB6A020EDB6AD950A7
:10050000030FE96EDACFEAFF200EEE6EEE6EEE6EAE
:10051000EE6EEE6EEE6EEE6EEE6EEE6AFD0EDBCF02
:1005200014F0FE0EDBCF15F00A0E0D6E0E6A14C02D
:1005300008F015C009F0E3EC08F004C014F005C0A1
:1005400015F0300E1426000E1522D950030F106E30
:10055000DACF11F0010EDBCFF3FFDB2AF350126E7E
:10056000136A12BE136810501224E96E1150132042
:10057000EA6E14C0EFFFD950FD0FE96EFF0EDA20CE
:10058000EA6E0A0E0D6E0E6AEECF08F0EDCF09F09E
:10059000E3EC08F008C0EEFF09C0EDFFD950FD0FF5
:1005A000E96EFF0EDA20EA6EEE50ED10B7E1020EB2
:1005B000DB6ADBCF10F0010EDB50E76E1018E8AEFF
:1005C00002D0E73402D0E750105C2DE2D950030F7F
:1005D000126EDACF13F0020EDBCFE6FF010EDB0462
:1005E000E552D880E754146E156A14BE156812508F
:1005F0001424E96E13501520EA6EEF50E66E020ED9
:10060000DBCF10F0116A10BE1168FB0EDB50102416
:10061000E96EFC0EDB501120EA6EE552E750EF6EFA
:10062000020EDB2AC6D7020EDBCF10F0116A10BE15
:100630001168FB0EDB501024E96EFC0EDB5011201C
:10064000EA6EEF6A0C0EE15C02E2E16AE552E16EED
:10065000E552E7CFD9FF1200D9CFE6FFE1CFD9FFAE
:100660000A0EE126D950010FE96EDACFEAFF6F0ECC
:10067000EE6E6B0EEE6E610EEE6E790EEE6EEE6A43
:10068000D950060FE96EDACFEAFF620EEE6E610E08
:10069000EE6E640EEE6EEE6AD9CFE6FFDACFE6FFBD
:1006A00004EC05F0E552E5520009F6E0F40EDF5CDB
:1006B00003E1D950010F02D0D950060FE66E000EAB
:1006C000DA20E66EE66AE66A26EC08F0E552E552C4
:0A06D000E552E552E1D794801200D4
:0606DA00700ED312806ACD
:1006E000300E926E0F0EC16E070EB46E1200D9CF8F
:1006F000E6FFE1CFD9FF8090808280949ADAE66AA3
:10070000020EE66E52EC07F0E552E552E66A010E83
:10071000E66E52EC07F0E552E552010EE66E020E6F
:10072000E66E52EC07F0E552E552010EE66EE66E1B
:1007300052EC07F0E552E552010EE66E020EE66E4F
:10074000FCD9E552E5520F0EE66E040EE66E52EC51
:1007500007F0E552E552030EE66EE66E52EC07F046
:10076000E552E552050EE66EFD0EDBCFE6FFFE0E0E
:10077000DBCFE6FF100EE66E76EC07F0E552E552B1
:10078000E552E552050EE66EFD0EDBCFE6FFFE0EEE
:10079000DBCFE6FF0A0EE66E76EC07F0E552E55297
:1007A000E552E552FC0EDB5004E1E66AE66AC5D983
:1007B0000CD0010EE66EE66AC0D9E552E552200E75
:1007C000E66E110EE66E52EC07F0E552E552120E9F
:1007D000E66E050EE66E52EC07F0E552E552010EAC
:1007E000E66EE66EAAD9E552E552050EE66EFCD934
:1007F000E552E552E7CFD9FF1200D9CFE6FFE1CFAE
:10080000D9FF050EE126E70EDF6EDE52DD6EF36ED8
:10081000020EF3CFDBFFE70EF36E030EF3CFDBFF29
:10082000E70EF36E040EF3CFDBFF8090808280949E
:1008300000DA380EE66EE66A52EC07F0E552E55251
:10084000E66A040EE66E52EC07F0E552E552030E3E
:10085000E66EE66E52EC07F0E552E552070EE66EE4
:10086000060EE66E52EC07F0E552E552020EE66E19
:10087000050EE66E52EC07F0E552E552050EE66E07
:10088000D9CFE6FFDACFE6FF100EE66E76EC07F082
:10089000E552E552E552E552050EE66ED9CFE6FF88
:1008A000DACFE6FF0A0EE66E76EC07F0E552E55287
:1008B000E552E552E66A010EE66E52EC07F0E552AB
:1008C000E552050EE15C02E2E16AE552E16EE552B5
:1008D000E7CFD9FF1200D9CFE6FFE1CFD9FF050E50
:1008E000E126E70EDF6EDE52DD6EF36E020EF3CF11
:1008F000DBFFE70EF36E030EF3CFDBFFE70EF36EC5
:10090000040EF3CFDBFF80908082809492D9390E61
:10091000E66EE66A52EC07F0E552E552E66A010E31
:10092000E66E52EC07F0E552E552030EE66EE66E17
:1009300052EC07F0E552E552070EE66E060EE66E43
:1009400052EC07F0E552E552010EE66E110EE66E2E
:1009500052EC07F0E552E552020EE66E050EE66E29
:1009600052EC07F0E552E552050EE66ED9CFE6FFF0
:10097000DACFE6FF100EE66E76EC07F0E552E552B0
:10098000E552E5523B0EE66EE66A52EC07F0E552A0
:10099000E552010EE66EE66ED0D8E552E552050E40
:1009A000E66E22D9E552050EE15C02E2E16AE5520B
:1009B000E16EE552E7CFD9FF1200D9CFE6FFE1CFD4
:1009C000D9FF8090700EE66E070EE66E52EC07F0CF
:1009D000E552E5523A0EE66EE66A52EC07F0E55251
:1009E000E552E10EE66EF7EC06F0E552FE0EDBCFC7
:1009F000E6FFA00EE66E0AEC07F0E552E552D8D805
:100A0000E552E7CFD9FF1200D9CFE6FFE1CFD9FFFA
:100A1000400EE66EB3D8E552000902E1000E25D083
:100A20008090E668610EE66E0AEC07F0E552E5524A
:100A3000E66EFD0EDBCFE9FFFE0EDBCFEAFFE552EF
:100A4000E750EF6EE20EE66EF7EC06F0E552400E70
:100A5000E66E070EE66E52EC07F0E552E552808036
:100A6000050EE66EC1D8E552010EE552E7CFD9FF7B
:100A70001200D9CFE6FFE1CFD9FF8090FC0EDB500A
:100A8000200802E2010E21D0FC0EDBCFE6FFFD0EB6
:100A9000DBCFE6FFFE0EDBCFE6FFA00EE66E22EC1C
:100AA00007F0E552E552E552E55282D8100EE66EA7
:100AB00065D8E552000902E0020E07D0200EE66E6E
:100AC0005DD8E5520009F2E0000EE552E7CFD9FF0C
:100AD0001200D9CFE6FFE1CFD9FF400EE66E4ED827
:100AE000E552000902E1010E24D0200EE66EFD0E53
:100AF000DBCFE6FFFE0EDBCFE6FF610EE66E22ECFB
:100B000007F0E552E552E552E552FD0EF3CFDBFF6B
:100B1000FE0EF4CFDBFFE20EE66EF7EC06F0E552D8
:100B2000400EE66E070EE66E52EC07F0E552E55217
:100B3000000EE552E7CFD9FF1200D9CFE6FFE1CF93
:100B4000D9FFE652320EE66EF7EC06F0E552DF6EA4
:100B5000FD0EDB5004E0FE0EDB50DF1203D0FE0E74
:100B6000DB1CDF16DFCFE6FFE66A52EC07F0E5524A
:100B7000E552E552E552E7CFD9FF1200D9CFE6FFA3
:100B8000E1CFD9FFE65280AA02D0000E0CD0E66871
:100B9000F7EC06F0E552DF6EFE0EDB50DF1402E0EC
:100BA000010E01D0000EE552E552E7CFD9FF120049
:100BB000D9CFE6FFE1CFD9FFE652DF6A8080DF6A56
:100BC000DF50106E116AD890115004E6960E105C3A
:100BD000000E115803E22DD8DF2AF2D78090E5529B
:100BE000E552E7CFD9FF1200D9CFE6FFE1CFD9FF19
:100BF000020EE126010EDB6AFE0EDB50F36E010EE3
:100C0000DBCFF4FFF350F45C0AE2DF6A610EDF5CD5
:100C100003E20FD8DF2AFAD7010EDB2AEDD7020E46
:100C2000E15C02E2E16AE552E16EE552E7CFD9FF0D
:040C3000120012009C
:0C0C3400D9CFE6FFE1CFD9FF020EE12688
:100C4000010EDB6ADF6A080EDF5C18E28084010EA9
:100C5000DBCFF3FFF39EF346F3CFDBFF8050100BA7
:100C600001E0010E106E010EDBCFE7FF1050E7121E
:100C7000010EE7CFDBFF8094DF2AE5D7010EDB50C2
:100C8000106E020EE15C02E2E16AE552E16E105084
:100C9000E552E7CFD9FF1200D9CFE6FFE1CFD9FF68
:100CA000E652DF6AFC0EDB50DF5C13E2C3DFE66E68
:100CB000DF50E76EFD0EDBCFE9FFFE0EDBCFEAFF74
:100CC000E750E926000EEA22E552E750EF6EDF2AF0
:100CD000E9D7E552E552E7CFD9FF1200D9CFE6FFB9
:100CE000E1CFD9FF020EE126DF6A080EDF5C25E2C4
:100CF000FE0EDBAE02D0808601D080968084010E8D
:100D0000DBCFF3FFF39EF346F3CFDBFF8050100BF6
:100D100001E0010E106E010EDBCFE7FF1050E7126D
:100D2000010EE7CFDBFF8094FE0EDBCFF3FFF39ED7
:100D3000F346F3CFDBFFDF2AD8D7010EDB50106E6E
:100D4000020EE15C02E2E16AE552E16E1050E5520A
:100D5000E7CFD9FF1200D9CFE6FFE1CFD9FF030ECD
:100D6000E126DE6ADD6ADE6ADD6ADECF10F0DDCF05
:100D700011F0FC0EDB50000111AE02D0D89003D070
:100D8000105C000E115824E2FD0EDBCF12F0FE0EB7
:100D9000DBCF13F0DE501224E96EDD501320EA6E33
:100DA000EF50E66E9BDFE552E66ED950020F106EF3
:100DB000DACF11F0DE501024E96EDD501120EA6E1A
:100DC000E552E750EF6EDF2A010ECFE3DB2ACDD7E5
:100DD000D950020FF36EDACFF4FF030EE15C02E2AA
:100DE000E16AE552E16EE552E7CFD9FF1200D9CFB3
:100DF000E6FFE1CFD9FFE6528092FE0EDBCFE6FFA1
:100E00006DDFE552DF6E8082DF50E552E552E7CFBD
:100E1000D9FF1200D9CFE6FFE1CFD9FFE652809289
:100E2000FE0EDBCFE6FF5ADFE552FD0EDBCFE6FF1D
:100E300055DFE552DF6E8082DF50E552E552E7CFA5
:100E4000D9FF1200D9CFE6FFE1CFD9FF020EE1268C
:100E50008092FE0EDBCFE6FF41DFE552FB0EDBCFDB
:100E6000E6FFFC0EDBCFE6FFFD0EDBCFE6FF73DF18
:100E7000E552E552E552F3CFDEFFF4CFDDFF80828D
:100E8000DECF10F0DDCF11F010C0F3FF11C0F4FF82
:100E9000020EE15C02E2E16AE552E16EE552E7CF63
:100EA000D9FF1200D9CFE6FFE1CFD9FFE652FE0EFF
:100EB000DB5017080AE2FE0EDB501D0806E0FE0EAE
:100EC000DB501C0802E0000E0CD0FE0EDB50200FA1
:100ED000DF6EFD0EDBCFE6FFDFCFE6FF9BDFE552E7
:100EE000E552E552E552E7CFD9FF1200D9CFE6FF30
:100EF000E1CFD9FFE652FE0EDB500A0808E1FE0EF4
:100F0000DB500B0804E1FE0EDB50100803E0F36A2F
:100F1000F46A14D0FE0EDB50200FDF6EFB0EDBCF29
:100F2000E6FFFC0EDBCFE6FFFD0EDBCFE6FFDFCFFB
:100F3000E6FF88DFE552E552E552E552E552E5521B
:100F4000E7CFD9FF1200D9CFE6FFE1CFD9FFE652B4
:100F5000FE0EDB5017080AE2FE0EDB501D0806E00D
:100F6000FE0EDB501C0802E0000E09D0FE0EDB5026
:100F7000DF6EE668DFCFE6FF4DDFE552E552E55272
:080F8000E552E7CFD9FF120092
:080F8800D9CFE6FFE1CFD9FF4C
:100F9000FE0EDB5005E008D807D8FE0EDB06F8D7BA
:100FA000E552E7CFD9FF1200D9CFE6FFE1CFD9FF55
:100FB000E652DF6A620EDF5C04E219EC06F0DF2A1B
:100FC000F9D7E552E552E7CFD9FF1200826A949A29
:100FD000949C949E816A9368190EE66ED5DFE55263
:100FE000300EE66EE66A6AD8E552E552050EE66E08
:100FF000CBDFE552300EE66EE66A60D8E552E55288
:10100000D3DF300EE66EE66A59D8E552E552380E67
:10101000E66EE66A6BD8E552E5520C0EE66EE66ABD
:1010200065D8E552E552010EE66EE66A5FD8E552F4
:10103000E552060EE66EE66A59D8E552E552020E12
:10104000E66EE66A53D8E552E5521200D9CFE6FFC4
:10105000E1CFD9FFFE0EDB5005E0400EF36EFE0E31
:10106000F3CFDBFFFD0EDBCFE6FFFE0EDB5080098A
:10107000E552E710E66EE66A39D8E552E552FB0E16
:10108000DBCFE9FFFC0EDBCFEAFFEF5013E0FB0EF6
:10109000DBCFE9FFFC0EDBCFEAFFEF50E66E010E7F
:1010A000E66E24D8E552E552FB0EDB2AFC0EE7E3A0
:1010B000DB2AE5D7E552E7CFD9FF1200D9CFE6FF0B
:1010C000E1CFD9FFFE0EDB50E8B0828AE8A0829A19
:1010D000829CFD0EDB50816E936A828E19EC06F0C5
:1010E000829E9368E552E7CFD9FF1200D9CFE6FF81
:1010F000E1CFD9FFE652829A828C9368828E19ECF6
:1011000006F08150DF6E829EDFBEF5D7FD0EDBCF8D
:10111000E6FFFE0EDBCFE6FFD1DFE552E552E552FA
:08112000E552E7CFD9FF1200F0
:08112800060EF66E000EF76ED4
:10113000000EF86E00010900F550856F0900F550AA
:10114000866F03E1856701D03DD00900F550806FBF
:101150000900F550816F0900F550826F0900090000
:10116000F550E96E0900F550EA6E09000900090022
:10117000F550836F0900F550846F09000900F6CF20
:1011800087F0F7CF88F0F8CF89F080C0F6FF81C0F4
:10119000F7FF82C0F8FF0001835302E1845307E0A8
:1011A0000900F550EE6E8307F8E28407F9D787C08F
:1011B000F6FF88C0F7FF89C0F8FF00018507000E21
:0611C000865BBFD71200A0
:0A11C600006A0EAEECEF08F00D6CAD
:1011D0000E1EE86A0E22001E09AEF4EF08F0086C3D
:1011E000091EE86A0922001E09EC09F009BE04EF95
:1011F00009F000AE000C086C091EE86A0922046CB4
:10120000051EE86A0522000C00BEFBEF08F001880D
:02121000FF0CD1
:0E121200056A046A100EE76ED8900836093699
:10122000043605360D50045C0E50055805E30D508C
:0E123000045E0E50055A082AE72EF0D7120071
:02123E00000EA0
:10124000F36E00EE00F0060E01D81200EA6002D044
:0E125000EE6AFCD7F350E9601200EE6AFCD79C
:02125E0015EE8B
:1012600000F025EE00F0F86A019C94EC08F03DECEB
:0A12700009F004EC00F0FBD71200B7
:02127A00120060
:020000040030CA
:0100010008F6
:0100020018E5
:010003001EDE
:0100050001F9
:010006008079
:00000001FF
