:020000040000FA
:06000000C8EF06F012003B
:020006000000F8
:0800080004D94FEC02F0825014
:10001000010B02E00EEF00F0BFEF00F0D9CFE6FFDA
:10002000E1CFD9FF1B0EE126D9CFE9FFDACFEAFFF6
:10003000490EEE6E6E0EEE6E690EEE6E740EEE6E84
:10004000690EEE6E610EEE6E6C0EEE6E540EEE6E7E
:10005000650EEE6E780EEE6E740EEE6EEE6AE70EC4
:10006000F36E0C0EF3CFDBFFE70EF36E0D0EF3CF46
:10007000DBFFE70EF36E0E0EF3CFDBFFE70EF36E42
:100080000F0EF3CFDBFFE70EF36E100EF3CFDBFFA7
:1000900078EC05F0010EE66EE66ED9500C0FE66EB8
:1000A000000EDA20E66E59EC02F0E552E552E55218
:1000B000E552D9CFE6FFDACFE6FFE66AE66AB8ECAA
:1000C00005F0E552E552E552E552010EE66ED950D3
:1000D000120FE66E000EDA20E66E1FEC03F0E5521A
:1000E000E552E5520009F1E1120EDB2A010EE66E3F
:1000F000D950110FE66E000EDA20E66E1FEC03F009
:10010000E552E552E5520009F1E1D950130FE66ED0
:10011000000EDA20E66E110EDBCFE6FF7CD8E5524A
:10012000E552E552D950170FE66E000EDA20E66E62
:10013000120EDBCFE6FF6FD8E552E552E55226EC12
:1001400006F0D950130FE66E000EDA20E66EE66A6E
:10015000E66AB8EC05F0E552E552E552E552D950B1
:10016000170FE66E000EDA20E66EE66A400EE66EC7
:10017000B8EC05F0E552E552E552E552B5D7D9CFD6
:10018000E6FFE1CFD9FF070EE126E70EDF6EDE5274
:10019000DD6EF36E020EF3CFDBFFE70EF36E030EA0
:1001A000F3CFDBFFE70EF36E040EF3CFDBFF050E9C
:1001B000DB6A060EDB6A010EE66EE66AD9CFE6FF61
:1001C000DACFE6FF59EC02F0E552E552E552E5528E
:1001D000060EDB6A030EF36E060EDBCFF4FFF35060
:1001E000F45C07E2E668B6EC03F0E552060EDB2AA3
:1001F000F1D7010EE66ED950050FE66E000EDA203B
:10020000E66EE5EC02F0E552E552E552050EDB2A1A
:10021000DFD794801200D9CFE6FFE1CFD9FF070ED8
:10022000E126FE0EDB50DF6E010EDB6A020EDB6A9A
:10023000D950030FE96EDACFEAFF200EEE6EEE6EB4
:10024000EE6EEE6A0A0E126E0E6EFE0EDBCF09F037
:10025000D6EC06F00550300FE66ED950030F106E45
:10026000DACF11F0010EDBCFF3FFDB2AF3500F01E1
:100270001024E96E000EDA20EA6EE552E750EF6EC8
:100280000A0E106E0E6EFE0EDBCF09F0D6EC06F0F5
:10029000FE0E09C0DBFFDB50D5E1020EDB6A010E6A
:1002A000DB50F36E020EDBCFF4FFF350F45C25E27B
:1002B000D950030F106E020EDBCFE6FF010EDB04F8
:1002C000E552D880E7541024E96E000EDA20EA6E79
:1002D000EF50E66E020EDB50E76EFC0EDBCFE9FF5F
:1002E000FD0EDBCFEAFFE750E926000EEA22E552D9
:1002F000E750EF6E020EDB2AD2D7020EDB50E76E1C
:10030000FC0EDBCFE9FFFD0EDBCFEAFFE750E9266D
:10031000000EEA22EF6A070EE15C02E2E16AE552B2
:10032000E16EE552E7CFD9FF1200D9CFE6FFE1CF6A
:10033000D9FF0C0EE126FD0EDB50DF6E010EDB6AED
:10034000020EDB6AD950030FE96EDACFEAFF200E06
:10035000EE6EEE6EEE6EEE6EEE6EEE6EEE6EEE6EBD
:10036000EE6AFD0EDBCF14F0FE0EDBCF15F00A0EA9
:100370000D6E0E6A14C008F015C009F07CEC06F092
:1003800004C014F005C015F0300E1426000E15221E
:10039000D950030F106EDACF11F0010EDBCFF3FF4F
:1003A000DB2AF350126E136A12BE13681050122427
:1003B000E96E11501320EA6E14C0EFFFD950FD0F03
:1003C000E96EFF0EDA20EA6E0A0E0D6E0E6AEECFAF
:1003D00008F0EDCF09F07CEC06F008C0EEFF09C094
:1003E000EDFFD950FD0FE96EFF0EDA20EA6EEE50F8
:1003F000ED10B7E1020EDB6ADBCF10F0010EDB502F
:10040000E76E1018E8AE02D0E73402D0E750105C77
:100410002DE2D950030F126EDACF13F0020EDBCFAC
:10042000E6FF010EDB04E552D880E754146E156A2E
:1004300014BE156812501424E96E13501520EA6E8C
:10044000EF50E66E020EDBCF10F0116A10BE11689D
:10045000FB0EDB501024E96EFC0EDB501120EA6E1F
:10046000E552E750EF6E020EDB2AC6D7020EDBCF55
:1004700010F0116A10BE1168FB0EDB501024E96EFB
:10048000FC0EDB501120EA6EEF6A0C0EE15C02E21A
:0E049000E16AE552E16EE552E7CFD9FF1200B6
:02049E00700EDE
:1004A000D312806A300E926E0F0EC16E070EB46EBC
:1004B0001200D9CFE6FFE1CFD9FFE65280908082CB
:1004C000809479D9E66A020EE66EACEC04F0E5524F
:1004D000E552E66A010EE66EACEC04F0E552E55238
:1004E000010EE66E020EE66EACEC04F0E552E5524B
:1004F000010EE66EE66EACEC04F0E552E552010E3C
:10050000E66E020EE66EC9D8E552E5521F0EE66EA3
:10051000040EE66EACEC04F0E552E552030EE66E16
:10052000E66EACEC04F0E552E552050EE66EFD0E0B
:10053000DBCFE6FFFE0EDBCFE6FF100EE66ED1EC62
:1005400004F0E552E552E552E552050EE66EFD0E69
:10055000DBCFE6FFFE0EDBCFE6FF0A0EE66ED1EC48
:1005600004F0E552E552E552E552FC0EDB5006E19F
:10057000E66AE66A92D8E552E55210D0010EE66EC0
:10058000E66A8BD8E552E552FB0EDBCFE6FF110E93
:10059000E66EACEC04F0E552E5528080120EE66E99
:1005A000050EE66EACEC04F0E552E552010EE66E87
:1005B000E66E73D8E552E552050EE66ED7D8E552E1
:1005C000E552E552E7CFD9FF1200D9CFE6FFE1CFE0
:1005D000D9FF8090FC0EDB50200802E2010E2BD0E8
:1005E000700EE66E070EE66EACEC04F0E552E552D6
:1005F000FC0EDBCFE6FFFD0EDBCFE6FFFE0EDBCF12
:10060000E6FF3EEC05F0E552E552E55293D8100EB8
:10061000E66E75D8E552000907E0E10EE66E61EC82
:1006200004F0E552020E07D0200EE66E68D8E552BF
:100630000009EDE0000EE552E7CFD9FF1200D9CF57
:10064000E6FFE1CFD9FF400EE66E59D8E55200092A
:1006500002E1010E1ED08090FC0EDBCFE6FFFD0E06
:10066000DBCFE6FFFE0EDBCFE6FF23EC05F0E55225
:10067000E552E552E20EE66E61EC04F0E552400E02
:10068000E66E070EE66EACEC04F0E552E5528080B3
:10069000000EE552E7CFD9FF1200D9CFE6FFE1CF38
:1006A000D9FFE652DF6AE66A02EC05F0E552DF6E3A
:1006B000FD0EDB500CE0010EF36EFE0EDB5004E08D
:1006C000D890F336E806FCE1F350DF120CD0010EAF
:1006D000F36EFE0EDB5004E0D890F336E806FCE142
:1006E000F350F31CDF16DFCFE6FFE66AACEC04F054
:1006F000E552E552E552E552E7CFD9FF1200D9CFD6
:10070000E6FFE1CFD9FFE65280AA02D0000E0DD05D
:10071000E66861EC04F0E552F00BDF6EFE0EDB5094
:10072000DF1402E0010E01D0000EE552E552E7CFE2
:10073000D9FF1200D9CFE6FFE1CFD9FFE652DF6A39
:100740008080DF6ADF50106E116AD890115004E685
:10075000960E105C000E115803E22DD8DF2AF2D756
:100760008090E552E552E7CFD9FF1200D9CFE6FFDE
:10077000E1CFD9FF020EE126010EDB6AFE0EDB504F
:10078000F36E010EDBCFF4FFF350F45C0AE2DF6A94
:10079000610EDF5C03E20FD8DF2AFAD7010EDB2AF5
:1007A000EDD7020EE15C02E2E16AE552E16EE5524C
:0807B000E7CFD9FF120012008F
:0807B800D9CFE6FFE1CFD9FF24
:1007C000020EE126010EDB6ADF6A080EDF5C25E21D
:1007D000FE0EDBAE02D0808601D080968084010EB2
:1007E000DBCFF3FFF39EF346F3CFDBFF8050100B1C
:1007F00001E0010E106E010EDBCFE7FF1050E71293
:10080000010EE7CFDBFF8094FE0EDBCFF3FFF39EFC
:10081000F346F3CFDBFFDF2AD8D7010EDB50106E93
:10082000020EE15C02E2E16AE552E16E1050E5522F
:10083000E7CFD9FF1200D9CFE6FFE1CFD9FFE652CB
:10084000DF6AFC0EDB50DF5C15E2E668B5DFE552DF
:10085000E66EDF50E76EFD0EDBCFE9FFFE0EDBCF6D
:10086000EAFFE750E926000EEA22E552E750EF6E74
:10087000DF2AE7D7E552E552E7CFD9FF1200D9CFFB
:10088000E6FFE1CFD9FFE652DF6ADF6AFC0EDB50FC
:10089000DF5C12E2DF50E76EFD0EDBCFE9FFFE0EFC
:1008A000DBCFEAFFE750E926000EEA22EF50E66EC2
:1008B00083DFE552DF2AEAD7E552E552E7CFD9FFD9
:1008C0001200D9CFE6FFE1CFD9FFE6528092FE0EAB
:1008D000DBCFE6FF71DFE552DF6E8082DF50E5524D
:1008E000E552E7CFD9FF1200D9CFE6FFE1CFD9FF1C
:1008F000E6528092FE0EDBCFE6FF5EDFE552FD0E94
:10090000DBCFE6FF59DFE552DF6E8082DF50E55234
:10091000E552E7CFD9FF1200D9CFE6FFE1CFD9FFEB
:10092000E6528092FE0EDBCFE6FF46DFE552DF6E39
:10093000FB0EDBCFE6FFFC0EDBCFE6FFFD0EDBCFD1
:10094000E6FF9DDFE552E552E5528082DF50E55239
:10095000E552E7CFD9FF1200D9CFE6FFE1CFD9FFAB
:10096000E652FE0EDB5017080AE2FE0EDB501D08B1
:1009700006E0FE0EDB501C0802E0010E0DD0FE0E5C
:10098000DB50200FDF6EFD0EDBCFE6FFDFCFE6FF93
:10099000ABDFE552E552000EE552E552E7CFD9FF55
:1009A0001200D9CFE6FFE1CFD9FFE652FE0EDB50B1
:1009B0000A080CE1FE0EDB500B0808E1FE0EDB50CE
:1009C000100804E1FB0EDB50050802E2010E15D011
:1009D000FE0EDB50200FDF6EFB0EDBCFE6FFFC0EC2
:1009E000DBCFE6FFFD0EDBCFE6FFDFCFE6FF94DFD8
:1009F000E552E552E552E552000EE552E552E7CFE9
:100A0000D9FF1200D9CFE6FFE1CFD9FFE652FE0EA3
:100A1000DB5017080AE2FE0EDB501D0806E0FE0E52
:100A2000DB501C0802E0000E09D0FE0EDB50DF6E2A
:100A3000E668DFCFE6FF58DFE552E552E552E552C2
:100A4000E7CFD9FF1200D9CFE6FFE1CFD9FF8092DF
:100A5000610EE66EB1DEE552FC0EDBCFE6FFFD0E69
:100A6000DBCFE6FFFE0EDBCFE6FFE5DEE552E5522B
:100A7000E5528082E552E7CFD9FF1200D9CFE6FFD9
:100A8000E1CFD9FFFC0EDBCFE6FFFD0EDBCFE6FFAB
:100A9000FE0EDBCFE6FFA00EE66E3EDFE552E5522E
:0C0AA000E552E552E552E7CFD9FF120005
:040AAC00D9CFE6FFB9
:100AB000E1CFD9FFFE0EDB5005E008D807D8FE0EC7
:100AC000DB06F8D7E552E7CFD9FF1200D9CFE6FF12
:100AD000E1CFD9FFE652DF6A620EDF5C04E2DBECB5
:100AE00003F0DF2AF9D7E552E552E7CFD9FF12002C
:100AF000826A949A949C949E816A9368190EE66E19
:100B0000D5DFE552300EE66EE66A6AD8E552E55268
:100B1000050EE66ECBDFE552300EE66EE66A60D873
:100B2000E552E552D3DF300EE66EE66A59D8E5525B
:100B3000E552380EE66EE66A6BD8E552E5520C0EC9
:100B4000E66EE66A65D8E552E552010EE66EE66AA3
:100B50005FD8E552E552060EE66EE66A59D8E552D0
:100B6000E552020EE66EE66A53D8E552E5521200EF
:100B7000D9CFE6FFE1CFD9FFFE0EDB5005E0400EF6
:100B8000F36EFE0EF3CFDBFFFD0EDBCFE6FFFE0EB6
:100B9000DB508009E552E710E66EE66A39D8E55287
:100BA000E552FB0EDBCFE9FFFC0EDBCFEAFFEF5097
:100BB00013E0FB0EDBCFE9FFFC0EDBCFEAFFEF50CB
:100BC000E66E010EE66E24D8E552E552FB0EDB2AF6
:100BD000FC0EE7E3DB2AE5D7E552E7CFD9FF1200A9
:100BE000D9CFE6FFE1CFD9FFFE0EDB50E8B0828A15
:100BF000E8A0829A829CFD0EDB50816E936A828E01
:100C0000DBEC03F0829E9368E552E7CFD9FF120038
:100C1000D9CFE6FFE1CFD9FFE652829A828C936862
:100C2000828EDBEC03F08150DF6E829EDFBEF5D753
:100C3000FD0EDBCFE6FFFE0EDBCFE6FFD1DFE55298
:100C4000E552E552E552E7CFD9FF1200010EE66EFC
:0A0C5000E66AC6DFE552E552120025
:060C5A00060EF66E000E0E
:100C6000F76E000EF86E00010900F550856F09005F
:100C7000F550866F03E1856701D03DD00900F5503E
:100C8000806F0900F550816F0900F550826F0900EF
:100C90000900F550E96E0900F550EA6E09000900F7
:100CA0000900F550836F0900F550846F09000900B1
:100CB000F6CF87F0F7CF88F0F8CF89F080C0F6FF45
:100CC00081C0F7FF82C0F8FF0001835302E1845323
:100CD00007E00900F550EE6E8307F8E28407F9D7C4
:100CE00087C0F6FF88C0F7FF89C0F8FF00018507BD
:080CF000000E865BBFD7120065
:080CF800006A0EAE85EF06F064
:100D00000D6C0E1EE86A0E22001E09AE8DEF06F075
:100D1000086C091EE86A0922001EA2EC06F009BE52
:100D20009DEF06F000AE000C086C091EE86A09226F
:100D3000046C051EE86A0522000C00BE94EF06F064
:040D40000188FF0C1B
:0C0D4400056A046A100EE76ED8900836AD
:100D50000936043605360D50045C0E50055805E37F
:100D60000D50045E0E50055A082AE72EF0D71200E7
:100D7000000EF36E00EE00F0060E01D81200EA60DD
:100D800002D0EE6AFCD7F350E9601200EE6AFCD79D
:100D900015EE00F025EE00F0F86A019C2DEC06F04F
:0C0DA000E4EC06F004EC00F0FBD71200BD
:040DAC00056A080EBE
:100DB000E76ED890093605360E50055C02E3056EE5
:080DC000092AE72EF7D7120003
:020DC800120017
:020000040030CA
:0100010008F6
:0100020018E5
:010003001EDE
:0100050001F9
:010006008079
:00000001FF
